{
  "_format": "hh-sol-artifact-1",
  "contractName": "MasterContract",
  "sourceName": "contracts/MasterContract.sol",
  "abi": [
    {
      "inputs": [
        {
          "internalType": "address",
          "name": "_goatNft",
          "type": "address"
        },
        {
          "internalType": "address",
          "name": "_pongToken",
          "type": "address"
        },
        {
          "internalType": "address",
          "name": "_tournamentNft",
          "type": "address"
        }
      ],
      "stateMutability": "nonpayable",
      "type": "constructor"
    },
    {
      "inputs": [
        {
          "internalType": "address",
          "name": "owner",
          "type": "address"
        }
      ],
      "name": "OwnableInvalidOwner",
      "type": "error"
    },
    {
      "inputs": [
        {
          "internalType": "address",
          "name": "account",
          "type": "address"
        }
      ],
      "name": "OwnableUnauthorizedAccount",
      "type": "error"
    },
    {
      "anonymous": false,
      "inputs": [
        {
          "indexed": true,
          "internalType": "address",
          "name": "player1",
          "type": "address"
        },
        {
          "indexed": true,
          "internalType": "address",
          "name": "player2",
          "type": "address"
        },
        {
          "indexed": true,
          "internalType": "address",
          "name": "winner",
          "type": "address"
        },
        {
          "indexed": false,
          "internalType": "uint8",
          "name": "player1Score",
          "type": "uint8"
        },
        {
          "indexed": false,
          "internalType": "uint8",
          "name": "player2Score",
          "type": "uint8"
        },
        {
          "indexed": false,
          "internalType": "uint16",
          "name": "matchId",
          "type": "uint16"
        }
      ],
      "name": "MatchReported",
      "type": "event"
    },
    {
      "anonymous": false,
      "inputs": [
        {
          "indexed": true,
          "internalType": "address",
          "name": "previousOwner",
          "type": "address"
        },
        {
          "indexed": true,
          "internalType": "address",
          "name": "newOwner",
          "type": "address"
        }
      ],
      "name": "OwnershipTransferred",
      "type": "event"
    },
    {
      "anonymous": false,
      "inputs": [
        {
          "indexed": false,
          "internalType": "string",
          "name": "name",
          "type": "string"
        },
        {
          "indexed": false,
          "internalType": "address",
          "name": "playerAddress",
          "type": "address"
        }
      ],
      "name": "PlayerAdded",
      "type": "event"
    },
    {
      "anonymous": false,
      "inputs": [
        {
          "indexed": true,
          "internalType": "uint16",
          "name": "tournamentId",
          "type": "uint16"
        },
        {
          "indexed": false,
          "internalType": "uint32",
          "name": "endTimestamp",
          "type": "uint32"
        },
        {
          "indexed": false,
          "internalType": "uint16[]",
          "name": "matchIds",
          "type": "uint16[]"
        },
        {
          "indexed": true,
          "internalType": "address",
          "name": "winner",
          "type": "address"
        }
      ],
      "name": "TournamentReported",
      "type": "event"
    },
    {
      "inputs": [
        {
          "internalType": "string",
          "name": "_name",
          "type": "string"
        },
        {
          "internalType": "address",
          "name": "_player",
          "type": "address"
        }
      ],
      "name": "addPlayer",
      "outputs": [],
      "stateMutability": "nonpayable",
      "type": "function"
    },
    {
      "inputs": [
        {
          "internalType": "uint16",
          "name": "matchId",
          "type": "uint16"
        }
      ],
      "name": "getMatchesByMatchId",
      "outputs": [
        {
          "components": [
            {
              "internalType": "address",
              "name": "player1",
              "type": "address"
            },
            {
              "internalType": "address",
              "name": "player2",
              "type": "address"
            },
            {
              "internalType": "address",
              "name": "winner",
              "type": "address"
            },
            {
              "internalType": "uint8",
              "name": "player1Score",
              "type": "uint8"
            },
            {
              "internalType": "uint8",
              "name": "player2Score",
              "type": "uint8"
            },
            {
              "internalType": "uint16",
              "name": "matchId",
              "type": "uint16"
            }
          ],
          "internalType": "struct MasterContract.Match",
          "name": "",
          "type": "tuple"
        }
      ],
      "stateMutability": "view",
      "type": "function"
    },
    {
      "inputs": [
        {
          "internalType": "string",
          "name": "player",
          "type": "string"
        }
      ],
      "name": "getMatchesByPlayer",
      "outputs": [
        {
          "components": [
            {
              "internalType": "address",
              "name": "player1",
              "type": "address"
            },
            {
              "internalType": "address",
              "name": "player2",
              "type": "address"
            },
            {
              "internalType": "address",
              "name": "winner",
              "type": "address"
            },
            {
              "internalType": "uint8",
              "name": "player1Score",
              "type": "uint8"
            },
            {
              "internalType": "uint8",
              "name": "player2Score",
              "type": "uint8"
            },
            {
              "internalType": "uint16",
              "name": "matchId",
              "type": "uint16"
            }
          ],
          "internalType": "struct MasterContract.Match[]",
          "name": "",
          "type": "tuple[]"
        }
      ],
      "stateMutability": "view",
      "type": "function"
    },
    {
      "inputs": [
        {
          "internalType": "address",
          "name": "winner",
          "type": "address"
        }
      ],
      "name": "getMatchesByWinner",
      "outputs": [
        {
          "components": [
            {
              "internalType": "address",
              "name": "player1",
              "type": "address"
            },
            {
              "internalType": "address",
              "name": "player2",
              "type": "address"
            },
            {
              "internalType": "address",
              "name": "winner",
              "type": "address"
            },
            {
              "internalType": "uint8",
              "name": "player1Score",
              "type": "uint8"
            },
            {
              "internalType": "uint8",
              "name": "player2Score",
              "type": "uint8"
            },
            {
              "internalType": "uint16",
              "name": "matchId",
              "type": "uint16"
            }
          ],
          "internalType": "struct MasterContract.Match[]",
          "name": "",
          "type": "tuple[]"
        }
      ],
      "stateMutability": "view",
      "type": "function"
    },
    {
      "inputs": [
        {
          "internalType": "string",
          "name": "_name",
          "type": "string"
        }
      ],
      "name": "getPlayerAddress",
      "outputs": [
        {
          "internalType": "address",
          "name": "",
          "type": "address"
        }
      ],
      "stateMutability": "view",
      "type": "function"
    },
    {
      "inputs": [
        {
          "internalType": "uint16",
          "name": "tournamentId",
          "type": "uint16"
        }
      ],
      "name": "getTournamentById",
      "outputs": [
        {
          "components": [
            {
              "internalType": "uint32",
              "name": "endTimestamp",
              "type": "uint32"
            },
            {
              "internalType": "uint16[]",
              "name": "matchIds",
              "type": "uint16[]"
            },
            {
              "internalType": "uint16",
              "name": "tournamentId",
              "type": "uint16"
            },
            {
              "internalType": "address",
              "name": "winner",
              "type": "address"
            }
          ],
          "internalType": "struct MasterContract.Tournament",
          "name": "",
          "type": "tuple"
        }
      ],
      "stateMutability": "view",
      "type": "function"
    },
    {
      "inputs": [
        {
          "internalType": "address",
          "name": "winner",
          "type": "address"
        }
      ],
      "name": "getTournamentByWinner",
      "outputs": [
        {
          "components": [
            {
              "internalType": "uint32",
              "name": "endTimestamp",
              "type": "uint32"
            },
            {
              "internalType": "uint16[]",
              "name": "matchIds",
              "type": "uint16[]"
            },
            {
              "internalType": "uint16",
              "name": "tournamentId",
              "type": "uint16"
            },
            {
              "internalType": "address",
              "name": "winner",
              "type": "address"
            }
          ],
          "internalType": "struct MasterContract.Tournament[]",
          "name": "",
          "type": "tuple[]"
        }
      ],
      "stateMutability": "view",
      "type": "function"
    },
    {
      "inputs": [
        {
          "internalType": "uint256",
          "name": "",
          "type": "uint256"
        }
      ],
      "name": "globalMatchesArray",
      "outputs": [
        {
          "internalType": "address",
          "name": "player1",
          "type": "address"
        },
        {
          "internalType": "address",
          "name": "player2",
          "type": "address"
        },
        {
          "internalType": "address",
          "name": "winner",
          "type": "address"
        },
        {
          "internalType": "uint8",
          "name": "player1Score",
          "type": "uint8"
        },
        {
          "internalType": "uint8",
          "name": "player2Score",
          "type": "uint8"
        },
        {
          "internalType": "uint16",
          "name": "matchId",
          "type": "uint16"
        }
      ],
      "stateMutability": "view",
      "type": "function"
    },
    {
      "inputs": [
        {
          "internalType": "uint256",
          "name": "",
          "type": "uint256"
        }
      ],
      "name": "globalTournamentsArray",
      "outputs": [
        {
          "internalType": "uint32",
          "name": "endTimestamp",
          "type": "uint32"
        },
        {
          "internalType": "uint16",
          "name": "tournamentId",
          "type": "uint16"
        },
        {
          "internalType": "address",
          "name": "winner",
          "type": "address"
        }
      ],
      "stateMutability": "view",
      "type": "function"
    },
    {
      "inputs": [],
      "name": "goatNft",
      "outputs": [
        {
          "internalType": "contract GoatNft",
          "name": "",
          "type": "address"
        }
      ],
      "stateMutability": "view",
      "type": "function"
    },
    {
      "inputs": [],
      "name": "owner",
      "outputs": [
        {
          "internalType": "address",
          "name": "",
          "type": "address"
        }
      ],
      "stateMutability": "view",
      "type": "function"
    },
    {
      "inputs": [],
      "name": "pongToken",
      "outputs": [
        {
          "internalType": "contract PongToken",
          "name": "",
          "type": "address"
        }
      ],
      "stateMutability": "view",
      "type": "function"
    },
    {
      "inputs": [],
      "name": "renounceOwnership",
      "outputs": [],
      "stateMutability": "nonpayable",
      "type": "function"
    },
    {
      "inputs": [
        {
          "internalType": "string",
          "name": "player1",
          "type": "string"
        },
        {
          "internalType": "string",
          "name": "player2",
          "type": "string"
        },
        {
          "internalType": "uint16",
          "name": "matchId",
          "type": "uint16"
        },
        {
          "internalType": "uint8",
          "name": "player1Score",
          "type": "uint8"
        },
        {
          "internalType": "uint8",
          "name": "player2Score",
          "type": "uint8"
        },
        {
          "internalType": "address",
          "name": "winner",
          "type": "address"
        }
      ],
      "name": "reportMatch",
      "outputs": [],
      "stateMutability": "nonpayable",
      "type": "function"
    },
    {
      "inputs": [
        {
          "internalType": "uint32",
          "name": "endTimestamp",
          "type": "uint32"
        },
        {
          "internalType": "uint16[]",
          "name": "matchIds",
          "type": "uint16[]"
        },
        {
          "internalType": "address",
          "name": "winner",
          "type": "address"
        }
      ],
      "name": "reportTournament",
      "outputs": [],
      "stateMutability": "nonpayable",
      "type": "function"
    },
    {
      "inputs": [],
      "name": "tournamentNft",
      "outputs": [
        {
          "internalType": "contract TournamentNft",
          "name": "",
          "type": "address"
        }
      ],
      "stateMutability": "view",
      "type": "function"
    },
    {
      "inputs": [],
      "name": "tournamentTokenIds",
      "outputs": [
        {
          "internalType": "uint16",
          "name": "",
          "type": "uint16"
        }
      ],
      "stateMutability": "view",
      "type": "function"
    },
    {
      "inputs": [
        {
          "internalType": "address",
          "name": "newOwner",
          "type": "address"
        }
      ],
      "name": "transferOwnership",
      "outputs": [],
      "stateMutability": "nonpayable",
      "type": "function"
    }
  ],
  "bytecode": "0x60806040523480156200001157600080fd5b506040516200414d3803806200414d8339818101604052810190620000379190620002d7565b33600073ffffffffffffffffffffffffffffffffffffffff168173ffffffffffffffffffffffffffffffffffffffff1603620000ad5760006040517f1e4fbdf7000000000000000000000000000000000000000000000000000000008152600401620000a4919062000344565b60405180910390fd5b620000be81620001a960201b60201c565b5082600160006101000a81548173ffffffffffffffffffffffffffffffffffffffff021916908373ffffffffffffffffffffffffffffffffffffffff16021790555081600360006101000a81548173ffffffffffffffffffffffffffffffffffffffff021916908373ffffffffffffffffffffffffffffffffffffffff16021790555080600260006101000a81548173ffffffffffffffffffffffffffffffffffffffff021916908373ffffffffffffffffffffffffffffffffffffffff1602179055506001600760006101000a81548161ffff021916908361ffff16021790555050505062000361565b60008060009054906101000a900473ffffffffffffffffffffffffffffffffffffffff169050816000806101000a81548173ffffffffffffffffffffffffffffffffffffffff021916908373ffffffffffffffffffffffffffffffffffffffff1602179055508173ffffffffffffffffffffffffffffffffffffffff168173ffffffffffffffffffffffffffffffffffffffff167f8be0079c531659141344cd1fd0a4f28419497f9722a3daafe3b4186f6b6457e060405160405180910390a35050565b600080fd5b600073ffffffffffffffffffffffffffffffffffffffff82169050919050565b60006200029f8262000272565b9050919050565b620002b18162000292565b8114620002bd57600080fd5b50565b600081519050620002d181620002a6565b92915050565b600080600060608486031215620002f357620002f26200026d565b5b60006200030386828701620002c0565b93505060206200031686828701620002c0565b92505060406200032986828701620002c0565b9150509250925092565b6200033e8162000292565b82525050565b60006020820190506200035b600083018462000333565b92915050565b613ddc80620003716000396000f3fe608060405234801561001057600080fd5b50600436106101165760003560e01c806365612077116100a25780638cecb84d116100715780638cecb84d146103095780638da5cb5b14610327578063e542506014610345578063ec203f6b1461037a578063f2fde38b1461039657610116565b80636561207714610283578063661c37fd1461029f578063715018a6146102cf5780637a080fd1146102d957610116565b80633492050b116100e95780633492050b146101b55780633b794245146101e557806340f55f9114610215578063592f72531461023357806364518cdd1461026557610116565b806303eff0d11461011b5780630e23e6fb1461014b578063149249da1461017b5780631750094a14610199575b600080fd5b6101356004803603810190610130919061287d565b6103b2565b6040516101429190612a1c565b60405180910390f35b61016560048036038101906101609190612a6a565b610759565b6040516101729190612b12565b60405180910390f35b610183610998565b6040516101909190612b8c565b60405180910390f35b6101b360048036038101906101ae9190612d19565b6109be565b005b6101cf60048036038101906101ca9190612dde565b6112e5565b6040516101dc9190612a1c565b60405180910390f35b6101ff60048036038101906101fa919061287d565b6117a4565b60405161020c919061301a565b60405180910390f35b61021d611b0b565b60405161022a919061304b565b60405180910390f35b61024d6004803603810190610248919061309c565b611b1f565b60405161025c939291906130e7565b60405180910390f35b61026d611b97565b60405161027a919061313f565b60405180910390f35b61029d6004803603810190610298919061324e565b611bbd565b005b6102b960048036038101906102b49190612dde565b611e06565b6040516102c691906132bd565b60405180910390f35b6102d7611e56565b005b6102f360048036038101906102ee9190612a6a565b611e6a565b604051610300919061333b565b60405180910390f35b610311612069565b60405161031e919061337e565b60405180910390f35b61032f61208f565b60405161033c91906132bd565b60405180910390f35b61035f600480360381019061035a919061309c565b6120b8565b604051610371969594939291906133a8565b60405180910390f35b610394600480360381019061038f9190613409565b61218c565b005b6103b060048036038101906103ab919061287d565b61236b565b005b60606000805b60048054905081101561045f578373ffffffffffffffffffffffffffffffffffffffff16600482815481106103f0576103ef613465565b5b906000526020600020906003020160020160009054906101000a900473ffffffffffffffffffffffffffffffffffffffff1673ffffffffffffffffffffffffffffffffffffffff160361044c578180610448906134c3565b9250505b8080610457906134c3565b9150506103b8565b50600081036104a3576040517f08c379a000000000000000000000000000000000000000000000000000000000815260040161049a90613568565b60405180910390fd5b60008167ffffffffffffffff8111156104bf576104be612bc2565b5b6040519080825280602002602001820160405280156104f857816020015b6104e561267a565b8152602001906001900390816104dd5790505b5090506000805b60048054905081101561074d578573ffffffffffffffffffffffffffffffffffffffff166004828154811061053757610536613465565b5b906000526020600020906003020160020160009054906101000a900473ffffffffffffffffffffffffffffffffffffffff1673ffffffffffffffffffffffffffffffffffffffff160361073a576004818154811061059857610597613465565b5b90600052602060002090600302016040518060c00160405290816000820160009054906101000a900473ffffffffffffffffffffffffffffffffffffffff1673ffffffffffffffffffffffffffffffffffffffff1673ffffffffffffffffffffffffffffffffffffffff1681526020016001820160009054906101000a900473ffffffffffffffffffffffffffffffffffffffff1673ffffffffffffffffffffffffffffffffffffffff1673ffffffffffffffffffffffffffffffffffffffff1681526020016002820160009054906101000a900473ffffffffffffffffffffffffffffffffffffffff1673ffffffffffffffffffffffffffffffffffffffff1673ffffffffffffffffffffffffffffffffffffffff1681526020016002820160149054906101000a900460ff1660ff1660ff1681526020016002820160159054906101000a900460ff1660ff1660ff1681526020016002820160169054906101000a900461ffff1661ffff1661ffff16815250508383815181106107205761071f613465565b5b60200260200101819052508180610736906134c3565b9250505b8080610745906134c3565b9150506104ff565b50819350505050919050565b61076161267a565b60005b600480549050811015610957578261ffff166004828154811061078a57610789613465565b5b906000526020600020906003020160020160169054906101000a900461ffff1661ffff160361094457600481815481106107c7576107c6613465565b5b90600052602060002090600302016040518060c00160405290816000820160009054906101000a900473ffffffffffffffffffffffffffffffffffffffff1673ffffffffffffffffffffffffffffffffffffffff1673ffffffffffffffffffffffffffffffffffffffff1681526020016001820160009054906101000a900473ffffffffffffffffffffffffffffffffffffffff1673ffffffffffffffffffffffffffffffffffffffff1673ffffffffffffffffffffffffffffffffffffffff1681526020016002820160009054906101000a900473ffffffffffffffffffffffffffffffffffffffff1673ffffffffffffffffffffffffffffffffffffffff1673ffffffffffffffffffffffffffffffffffffffff1681526020016002820160149054906101000a900460ff1660ff1660ff1681526020016002820160159054906101000a900460ff1660ff1660ff1681526020016002820160169054906101000a900461ffff1661ffff1661ffff1681525050915050610993565b808061094f906134c3565b915050610764565b506040517f08c379a000000000000000000000000000000000000000000000000000000000815260040161098a906135d4565b60405180910390fd5b919050565b600160009054906101000a900473ffffffffffffffffffffffffffffffffffffffff1681565b6109c66123f1565b60005b600480549050811015610a66578461ffff16600482815481106109ef576109ee613465565b5b906000526020600020906003020160020160169054906101000a900461ffff1661ffff1603610a53576040517f08c379a0000000000000000000000000000000000000000000000000000000008152600401610a4a90613640565b60405180910390fd5b8080610a5e906134c3565b9150506109c9565b50600073ffffffffffffffffffffffffffffffffffffffff16610a8887611e06565b73ffffffffffffffffffffffffffffffffffffffff1603610ade576040517f08c379a0000000000000000000000000000000000000000000000000000000008152600401610ad5906136ac565b60405180910390fd5b600073ffffffffffffffffffffffffffffffffffffffff16610aff86611e06565b73ffffffffffffffffffffffffffffffffffffffff1603610b55576040517f08c379a0000000000000000000000000000000000000000000000000000000008152600401610b4c90613718565b60405180910390fd5b600073ffffffffffffffffffffffffffffffffffffffff168173ffffffffffffffffffffffffffffffffffffffff1603610bc4576040517f08c379a0000000000000000000000000000000000000000000000000000000008152600401610bbb90613784565b60405180910390fd5b600360009054906101000a900473ffffffffffffffffffffffffffffffffffffffff1673ffffffffffffffffffffffffffffffffffffffff166340c10f1982600a6040518363ffffffff1660e01b8152600401610c229291906137df565b600060405180830381600087803b158015610c3c57600080fd5b505af1158015610c50573d6000803e3d6000fd5b50505050600360009054906101000a900473ffffffffffffffffffffffffffffffffffffffff1673ffffffffffffffffffffffffffffffffffffffff166370a08231826040518263ffffffff1660e01b8152600401610caf91906132bd565b602060405180830381865afa158015610ccc573d6000803e3d6000fd5b505050506040513d601f19601f82011682018060405250810190610cf0919061381d565b600360009054906101000a900473ffffffffffffffffffffffffffffffffffffffff1673ffffffffffffffffffffffffffffffffffffffff166370a08231600160009054906101000a900473ffffffffffffffffffffffffffffffffffffffff1673ffffffffffffffffffffffffffffffffffffffff1663f8cacb4c6040518163ffffffff1660e01b8152600401602060405180830381865afa158015610d9b573d6000803e3d6000fd5b505050506040513d601f19601f82011682018060405250810190610dbf919061385f565b6040518263ffffffff1660e01b8152600401610ddb91906132bd565b602060405180830381865afa158015610df8573d6000803e3d6000fd5b505050506040513d601f19601f82011682018060405250810190610e1c919061381d565b1015610f4257600160009054906101000a900473ffffffffffffffffffffffffffffffffffffffff1673ffffffffffffffffffffffffffffffffffffffff1663065db7a5600160009054906101000a900473ffffffffffffffffffffffffffffffffffffffff1673ffffffffffffffffffffffffffffffffffffffff1663f8cacb4c6040518163ffffffff1660e01b8152600401602060405180830381865afa158015610ecd573d6000803e3d6000fd5b505050506040513d601f19601f82011682018060405250810190610ef1919061385f565b836040518363ffffffff1660e01b8152600401610f0f92919061388c565b600060405180830381600087803b158015610f2957600080fd5b505af1158015610f3d573d6000803e3d6000fd5b505050505b60008173ffffffffffffffffffffffffffffffffffffffff16610f6488611e06565b73ffffffffffffffffffffffffffffffffffffffff1603610f8d57610f8886611e06565b610f97565b610f9687611e06565b5b9050600061103f600360009054906101000a900473ffffffffffffffffffffffffffffffffffffffff1673ffffffffffffffffffffffffffffffffffffffff166370a08231846040518263ffffffff1660e01b8152600401610ff991906132bd565b602060405180830381865afa158015611016573d6000803e3d6000fd5b505050506040513d601f19601f8201168201806040525081019061103a919061381d565b612478565b9050600360009054906101000a900473ffffffffffffffffffffffffffffffffffffffff1673ffffffffffffffffffffffffffffffffffffffff16639dc29fac83836040518363ffffffff1660e01b815260040161109e9291906138c4565b600060405180830381600087803b1580156110b857600080fd5b505af11580156110cc573d6000803e3d6000fd5b5050505060006110e089898689898c6124b2565b9050600481908060018154018082558091505060019003906000526020600020906003020160009091909190915060008201518160000160006101000a81548173ffffffffffffffffffffffffffffffffffffffff021916908373ffffffffffffffffffffffffffffffffffffffff16021790555060208201518160010160006101000a81548173ffffffffffffffffffffffffffffffffffffffff021916908373ffffffffffffffffffffffffffffffffffffffff16021790555060408201518160020160006101000a81548173ffffffffffffffffffffffffffffffffffffffff021916908373ffffffffffffffffffffffffffffffffffffffff16021790555060608201518160020160146101000a81548160ff021916908360ff16021790555060808201518160020160156101000a81548160ff021916908360ff16021790555060a08201518160020160166101000a81548161ffff021916908361ffff16021790555050508373ffffffffffffffffffffffffffffffffffffffff1661126a89611e06565b73ffffffffffffffffffffffffffffffffffffffff166112898b611e06565b73ffffffffffffffffffffffffffffffffffffffff167f5169cf6c9c65452203b100125a7144f1f8fa3c59d527a84551a88fcee99df6ff89898c6040516112d2939291906138ed565b60405180910390a4505050505050505050565b60606000805b60048054905081101561141e5761130184611e06565b73ffffffffffffffffffffffffffffffffffffffff166004828154811061132b5761132a613465565b5b906000526020600020906003020160000160009054906101000a900473ffffffffffffffffffffffffffffffffffffffff1673ffffffffffffffffffffffffffffffffffffffff1614806113f7575061138384611e06565b73ffffffffffffffffffffffffffffffffffffffff16600482815481106113ad576113ac613465565b5b906000526020600020906003020160010160009054906101000a900473ffffffffffffffffffffffffffffffffffffffff1673ffffffffffffffffffffffffffffffffffffffff16145b1561140b578180611407906134c3565b9250505b8080611416906134c3565b9150506112eb565b5060008103611462576040517f08c379a000000000000000000000000000000000000000000000000000000000815260040161145990613970565b60405180910390fd5b60008167ffffffffffffffff81111561147e5761147d612bc2565b5b6040519080825280602002602001820160405280156114b757816020015b6114a461267a565b81526020019060019003908161149c5790505b5090506000805b600480549050811015611798576114d486611e06565b73ffffffffffffffffffffffffffffffffffffffff16600482815481106114fe576114fd613465565b5b906000526020600020906003020160000160009054906101000a900473ffffffffffffffffffffffffffffffffffffffff1673ffffffffffffffffffffffffffffffffffffffff1614806115ca575061155686611e06565b73ffffffffffffffffffffffffffffffffffffffff16600482815481106115805761157f613465565b5b906000526020600020906003020160010160009054906101000a900473ffffffffffffffffffffffffffffffffffffffff1673ffffffffffffffffffffffffffffffffffffffff16145b1561178557600481815481106115e3576115e2613465565b5b90600052602060002090600302016040518060c00160405290816000820160009054906101000a900473ffffffffffffffffffffffffffffffffffffffff1673ffffffffffffffffffffffffffffffffffffffff1673ffffffffffffffffffffffffffffffffffffffff1681526020016001820160009054906101000a900473ffffffffffffffffffffffffffffffffffffffff1673ffffffffffffffffffffffffffffffffffffffff1673ffffffffffffffffffffffffffffffffffffffff1681526020016002820160009054906101000a900473ffffffffffffffffffffffffffffffffffffffff1673ffffffffffffffffffffffffffffffffffffffff1673ffffffffffffffffffffffffffffffffffffffff1681526020016002820160149054906101000a900460ff1660ff1660ff1681526020016002820160159054906101000a900460ff1660ff1660ff1681526020016002820160169054906101000a900461ffff1661ffff1661ffff168152505083838151811061176b5761176a613465565b5b60200260200101819052508180611781906134c3565b9250505b8080611790906134c3565b9150506114be565b50819350505050919050565b60606000805b600580549050811015611851578373ffffffffffffffffffffffffffffffffffffffff16600582815481106117e2576117e1613465565b5b906000526020600020906003020160020160029054906101000a900473ffffffffffffffffffffffffffffffffffffffff1673ffffffffffffffffffffffffffffffffffffffff160361183e57818061183a906134c3565b9250505b8080611849906134c3565b9150506117aa565b5060008103611895576040517f08c379a000000000000000000000000000000000000000000000000000000000815260040161188c90613a02565b60405180910390fd5b60008167ffffffffffffffff8111156118b1576118b0612bc2565b5b6040519080825280602002602001820160405280156118ea57816020015b6118d76126fc565b8152602001906001900390816118cf5790505b5090506000805b600580549050811015611aff578573ffffffffffffffffffffffffffffffffffffffff166005828154811061192957611928613465565b5b906000526020600020906003020160020160029054906101000a900473ffffffffffffffffffffffffffffffffffffffff1673ffffffffffffffffffffffffffffffffffffffff1603611aec576005818154811061198a57611989613465565b5b90600052602060002090600302016040518060800160405290816000820160009054906101000a900463ffffffff1663ffffffff1663ffffffff16815260200160018201805480602002602001604051908101604052809291908181526020018280548015611a4057602002820191906000526020600020906000905b82829054906101000a900461ffff1661ffff1681526020019060020190602082600101049283019260010382029150808411611a075790505b505050505081526020016002820160009054906101000a900461ffff1661ffff1661ffff1681526020016002820160029054906101000a900473ffffffffffffffffffffffffffffffffffffffff1673ffffffffffffffffffffffffffffffffffffffff1673ffffffffffffffffffffffffffffffffffffffff1681525050838381518110611ad257611ad1613465565b5b60200260200101819052508180611ae8906134c3565b9250505b8080611af7906134c3565b9150506118f1565b50819350505050919050565b600760009054906101000a900461ffff1681565b60058181548110611b2f57600080fd5b90600052602060002090600302016000915090508060000160009054906101000a900463ffffffff16908060020160009054906101000a900461ffff16908060020160029054906101000a900473ffffffffffffffffffffffffffffffffffffffff16905083565b600360009054906101000a900473ffffffffffffffffffffffffffffffffffffffff1681565b611bc56123f1565b600260009054906101000a900473ffffffffffffffffffffffffffffffffffffffff1673ffffffffffffffffffffffffffffffffffffffff16634d348eb582600760009054906101000a900461ffff166040518363ffffffff1660e01b8152600401611c32929190613a53565b600060405180830381600087803b158015611c4c57600080fd5b505af1158015611c60573d6000803e3d6000fd5b505050506000611c828484600760009054906101000a900461ffff1685612555565b9050600581908060018154018082558091505060019003906000526020600020906003020160009091909190915060008201518160000160006101000a81548163ffffffff021916908363ffffffff1602179055506020820151816001019080519060200190611cf3929190612744565b5060408201518160020160006101000a81548161ffff021916908361ffff16021790555060608201518160020160026101000a81548173ffffffffffffffffffffffffffffffffffffffff021916908373ffffffffffffffffffffffffffffffffffffffff16021790555050508173ffffffffffffffffffffffffffffffffffffffff16600760009054906101000a900461ffff1661ffff167f20cccded3274d61ae21772e24555a8219991777fcbfa43e8c3587f5d1c17b6818686604051611dbd929190613aeb565b60405180910390a36007600081819054906101000a900461ffff1680929190611de590613b1b565b91906101000a81548161ffff021916908361ffff1602179055505050505050565b6000611e106123f1565b600682604051611e209190613bb6565b908152602001604051809103902060009054906101000a900473ffffffffffffffffffffffffffffffffffffffff169050919050565b611e5e6123f1565b611e6860006125ae565b565b611e726126fc565b60005b600580549050811015612028578261ffff1660058281548110611e9b57611e9a613465565b5b906000526020600020906003020160020160009054906101000a900461ffff1661ffff16036120155760058181548110611ed857611ed7613465565b5b90600052602060002090600302016040518060800160405290816000820160009054906101000a900463ffffffff1663ffffffff1663ffffffff16815260200160018201805480602002602001604051908101604052809291908181526020018280548015611f8e57602002820191906000526020600020906000905b82829054906101000a900461ffff1661ffff1681526020019060020190602082600101049283019260010382029150808411611f555790505b505050505081526020016002820160009054906101000a900461ffff1661ffff1661ffff1681526020016002820160029054906101000a900473ffffffffffffffffffffffffffffffffffffffff1673ffffffffffffffffffffffffffffffffffffffff1673ffffffffffffffffffffffffffffffffffffffff1681525050915050612064565b8080612020906134c3565b915050611e75565b506040517f08c379a000000000000000000000000000000000000000000000000000000000815260040161205b90613c19565b60405180910390fd5b919050565b600260009054906101000a900473ffffffffffffffffffffffffffffffffffffffff1681565b60008060009054906101000a900473ffffffffffffffffffffffffffffffffffffffff16905090565b600481815481106120c857600080fd5b90600052602060002090600302016000915090508060000160009054906101000a900473ffffffffffffffffffffffffffffffffffffffff16908060010160009054906101000a900473ffffffffffffffffffffffffffffffffffffffff16908060020160009054906101000a900473ffffffffffffffffffffffffffffffffffffffff16908060020160149054906101000a900460ff16908060020160159054906101000a900460ff16908060020160169054906101000a900461ffff16905086565b6121946123f1565b600073ffffffffffffffffffffffffffffffffffffffff166006836040516121bc9190613bb6565b908152602001604051809103902060009054906101000a900473ffffffffffffffffffffffffffffffffffffffff1673ffffffffffffffffffffffffffffffffffffffff1614612241576040517f08c379a000000000000000000000000000000000000000000000000000000000815260040161223890613c85565b60405180910390fd5b806006836040516122529190613bb6565b908152602001604051809103902060006101000a81548173ffffffffffffffffffffffffffffffffffffffff021916908373ffffffffffffffffffffffffffffffffffffffff160217905550600360009054906101000a900473ffffffffffffffffffffffffffffffffffffffff1673ffffffffffffffffffffffffffffffffffffffff166340c10f198260646040518363ffffffff1660e01b81526004016122fc929190613ce0565b600060405180830381600087803b15801561231657600080fd5b505af115801561232a573d6000803e3d6000fd5b505050507f746dea5d185825c2cafa76d92ad583ff3a306508c3b038f5aa772d0318df5332828260405161235f929190613d42565b60405180910390a15050565b6123736123f1565b600073ffffffffffffffffffffffffffffffffffffffff168173ffffffffffffffffffffffffffffffffffffffff16036123e55760006040517f1e4fbdf70000000000000000000000000000000000000000000000000000000081526004016123dc91906132bd565b60405180910390fd5b6123ee816125ae565b50565b6123f9612672565b73ffffffffffffffffffffffffffffffffffffffff1661241761208f565b73ffffffffffffffffffffffffffffffffffffffff16146124765761243a612672565b6040517f118cdaa700000000000000000000000000000000000000000000000000000000815260040161246d91906132bd565b60405180910390fd5b565b6000600a821161248b57600090506124ad565b60148210156124a857600a826124a19190613d72565b90506124ad565b600a90505b919050565b6124ba61267a565b60006040518060c001604052806124d08a611e06565b73ffffffffffffffffffffffffffffffffffffffff1681526020016124f489611e06565b73ffffffffffffffffffffffffffffffffffffffff1681526020018773ffffffffffffffffffffffffffffffffffffffff1681526020018660ff1681526020018560ff1681526020018461ffff168152509050809150509695505050505050565b61255d6126fc565b600060405180608001604052808763ffffffff1681526020018681526020018561ffff1681526020018473ffffffffffffffffffffffffffffffffffffffff16815250905080915050949350505050565b60008060009054906101000a900473ffffffffffffffffffffffffffffffffffffffff169050816000806101000a81548173ffffffffffffffffffffffffffffffffffffffff021916908373ffffffffffffffffffffffffffffffffffffffff1602179055508173ffffffffffffffffffffffffffffffffffffffff168173ffffffffffffffffffffffffffffffffffffffff167f8be0079c531659141344cd1fd0a4f28419497f9722a3daafe3b4186f6b6457e060405160405180910390a35050565b600033905090565b6040518060c00160405280600073ffffffffffffffffffffffffffffffffffffffff168152602001600073ffffffffffffffffffffffffffffffffffffffff168152602001600073ffffffffffffffffffffffffffffffffffffffff168152602001600060ff168152602001600060ff168152602001600061ffff1681525090565b6040518060800160405280600063ffffffff16815260200160608152602001600061ffff168152602001600073ffffffffffffffffffffffffffffffffffffffff1681525090565b82805482825590600052602060002090600f016010900481019282156127dd5791602002820160005b838211156127ad57835183826101000a81548161ffff021916908361ffff160217905550926020019260020160208160010104928301926001030261276d565b80156127db5782816101000a81549061ffff02191690556002016020816001010492830192600103026127ad565b505b5090506127ea91906127ee565b5090565b5b808211156128075760008160009055506001016127ef565b5090565b6000604051905090565b600080fd5b600080fd5b600073ffffffffffffffffffffffffffffffffffffffff82169050919050565b600061284a8261281f565b9050919050565b61285a8161283f565b811461286557600080fd5b50565b60008135905061287781612851565b92915050565b60006020828403121561289357612892612815565b5b60006128a184828501612868565b91505092915050565b600081519050919050565b600082825260208201905092915050565b6000819050602082019050919050565b6128df8161283f565b82525050565b600060ff82169050919050565b6128fb816128e5565b82525050565b600061ffff82169050919050565b61291881612901565b82525050565b60c08201600082015161293460008501826128d6565b50602082015161294760208501826128d6565b50604082015161295a60408501826128d6565b50606082015161296d60608501826128f2565b50608082015161298060808501826128f2565b5060a082015161299360a085018261290f565b50505050565b60006129a5838361291e565b60c08301905092915050565b6000602082019050919050565b60006129c9826128aa565b6129d381856128b5565b93506129de836128c6565b8060005b83811015612a0f5781516129f68882612999565b9750612a01836129b1565b9250506001810190506129e2565b5085935050505092915050565b60006020820190508181036000830152612a3681846129be565b905092915050565b612a4781612901565b8114612a5257600080fd5b50565b600081359050612a6481612a3e565b92915050565b600060208284031215612a8057612a7f612815565b5b6000612a8e84828501612a55565b91505092915050565b60c082016000820151612aad60008501826128d6565b506020820151612ac060208501826128d6565b506040820151612ad360408501826128d6565b506060820151612ae660608501826128f2565b506080820151612af960808501826128f2565b5060a0820151612b0c60a085018261290f565b50505050565b600060c082019050612b276000830184612a97565b92915050565b6000819050919050565b6000612b52612b4d612b488461281f565b612b2d565b61281f565b9050919050565b6000612b6482612b37565b9050919050565b6000612b7682612b59565b9050919050565b612b8681612b6b565b82525050565b6000602082019050612ba16000830184612b7d565b92915050565b600080fd5b600080fd5b6000601f19601f8301169050919050565b7f4e487b7100000000000000000000000000000000000000000000000000000000600052604160045260246000fd5b612bfa82612bb1565b810181811067ffffffffffffffff82111715612c1957612c18612bc2565b5b80604052505050565b6000612c2c61280b565b9050612c388282612bf1565b919050565b600067ffffffffffffffff821115612c5857612c57612bc2565b5b612c6182612bb1565b9050602081019050919050565b82818337600083830152505050565b6000612c90612c8b84612c3d565b612c22565b905082815260208101848484011115612cac57612cab612bac565b5b612cb7848285612c6e565b509392505050565b600082601f830112612cd457612cd3612ba7565b5b8135612ce4848260208601612c7d565b91505092915050565b612cf6816128e5565b8114612d0157600080fd5b50565b600081359050612d1381612ced565b92915050565b60008060008060008060c08789031215612d3657612d35612815565b5b600087013567ffffffffffffffff811115612d5457612d5361281a565b5b612d6089828a01612cbf565b965050602087013567ffffffffffffffff811115612d8157612d8061281a565b5b612d8d89828a01612cbf565b9550506040612d9e89828a01612a55565b9450506060612daf89828a01612d04565b9350506080612dc089828a01612d04565b92505060a0612dd189828a01612868565b9150509295509295509295565b600060208284031215612df457612df3612815565b5b600082013567ffffffffffffffff811115612e1257612e1161281a565b5b612e1e84828501612cbf565b91505092915050565b600081519050919050565b600082825260208201905092915050565b6000819050602082019050919050565b600063ffffffff82169050919050565b612e6c81612e53565b82525050565b600081519050919050565b600082825260208201905092915050565b6000819050602082019050919050565b6000612eaa838361290f565b60208301905092915050565b6000602082019050919050565b6000612ece82612e72565b612ed88185612e7d565b9350612ee383612e8e565b8060005b83811015612f14578151612efb8882612e9e565b9750612f0683612eb6565b925050600181019050612ee7565b5085935050505092915050565b6000608083016000830151612f396000860182612e63565b5060208301518482036020860152612f518282612ec3565b9150506040830151612f66604086018261290f565b506060830151612f7960608601826128d6565b508091505092915050565b6000612f908383612f21565b905092915050565b6000602082019050919050565b6000612fb082612e27565b612fba8185612e32565b935083602082028501612fcc85612e43565b8060005b858110156130085784840389528151612fe98582612f84565b9450612ff483612f98565b925060208a01995050600181019050612fd0565b50829750879550505050505092915050565b600060208201905081810360008301526130348184612fa5565b905092915050565b61304581612901565b82525050565b6000602082019050613060600083018461303c565b92915050565b6000819050919050565b61307981613066565b811461308457600080fd5b50565b60008135905061309681613070565b92915050565b6000602082840312156130b2576130b1612815565b5b60006130c084828501613087565b91505092915050565b6130d281612e53565b82525050565b6130e18161283f565b82525050565b60006060820190506130fc60008301866130c9565b613109602083018561303c565b61311660408301846130d8565b949350505050565b600061312982612b59565b9050919050565b6131398161311e565b82525050565b60006020820190506131546000830184613130565b92915050565b61316381612e53565b811461316e57600080fd5b50565b6000813590506131808161315a565b92915050565b600067ffffffffffffffff8211156131a1576131a0612bc2565b5b602082029050602081019050919050565b600080fd5b60006131ca6131c584613186565b612c22565b905080838252602082019050602084028301858111156131ed576131ec6131b2565b5b835b8181101561321657806132028882612a55565b8452602084019350506020810190506131ef565b5050509392505050565b600082601f83011261323557613234612ba7565b5b81356132458482602086016131b7565b91505092915050565b60008060006060848603121561326757613266612815565b5b600061327586828701613171565b935050602084013567ffffffffffffffff8111156132965761329561281a565b5b6132a286828701613220565b92505060406132b386828701612868565b9150509250925092565b60006020820190506132d260008301846130d8565b92915050565b60006080830160008301516132f06000860182612e63565b50602083015184820360208601526133088282612ec3565b915050604083015161331d604086018261290f565b50606083015161333060608601826128d6565b508091505092915050565b6000602082019050818103600083015261335581846132d8565b905092915050565b600061336882612b59565b9050919050565b6133788161335d565b82525050565b6000602082019050613393600083018461336f565b92915050565b6133a2816128e5565b82525050565b600060c0820190506133bd60008301896130d8565b6133ca60208301886130d8565b6133d760408301876130d8565b6133e46060830186613399565b6133f16080830185613399565b6133fe60a083018461303c565b979650505050505050565b600080604083850312156134205761341f612815565b5b600083013567ffffffffffffffff81111561343e5761343d61281a565b5b61344a85828601612cbf565b925050602061345b85828601612868565b9150509250929050565b7f4e487b7100000000000000000000000000000000000000000000000000000000600052603260045260246000fd5b7f4e487b7100000000000000000000000000000000000000000000000000000000600052601160045260246000fd5b60006134ce82613066565b91507fffffffffffffffffffffffffffffffffffffffffffffffffffffffffffffffff8203613500576134ff613494565b5b600182019050919050565b600082825260208201905092915050565b7f4e6f206d61746368657320666f756e6420666f72207468652077696e6e657200600082015250565b6000613552601f8361350b565b915061355d8261351c565b602082019050919050565b6000602082019050818103600083015261358181613545565b9050919050565b7f4d61746368206e6f7420666f756e640000000000000000000000000000000000600082015250565b60006135be600f8361350b565b91506135c982613588565b602082019050919050565b600060208201905081810360008301526135ed816135b1565b9050919050565b7f4d6174636820494420616c726561647920757365640000000000000000000000600082015250565b600061362a60158361350b565b9150613635826135f4565b602082019050919050565b600060208201905081810360008301526136598161361d565b9050919050565b7f506c6179657231206e6f74207265676973746572656400000000000000000000600082015250565b600061369660168361350b565b91506136a182613660565b602082019050919050565b600060208201905081810360008301526136c581613689565b9050919050565b7f506c6179657232206e6f74207265676973746572656400000000000000000000600082015250565b600061370260168361350b565b915061370d826136cc565b602082019050919050565b60006020820190508181036000830152613731816136f5565b9050919050565b7f57696e6e6572206164647265737320697320696e76616c696400000000000000600082015250565b600061376e60198361350b565b915061377982613738565b602082019050919050565b6000602082019050818103600083015261379d81613761565b9050919050565b6000819050919050565b60006137c96137c46137bf846137a4565b612b2d565b613066565b9050919050565b6137d9816137ae565b82525050565b60006040820190506137f460008301856130d8565b61380160208301846137d0565b9392505050565b60008151905061381781613070565b92915050565b60006020828403121561383357613832612815565b5b600061384184828501613808565b91505092915050565b60008151905061385981612851565b92915050565b60006020828403121561387557613874612815565b5b60006138838482850161384a565b91505092915050565b60006040820190506138a160008301856130d8565b6138ae60208301846130d8565b9392505050565b6138be81613066565b82525050565b60006040820190506138d960008301856130d8565b6138e660208301846138b5565b9392505050565b60006060820190506139026000830186613399565b61390f6020830185613399565b61391c604083018461303c565b949350505050565b7f4e6f206d61746368657320666f756e6420666f722074686520706c6179657200600082015250565b600061395a601f8361350b565b915061396582613924565b602082019050919050565b600060208201905081810360008301526139898161394d565b9050919050565b7f4e6f20746f75726e616d656e747320666f756e6420666f72207468652077696e60008201527f6e65720000000000000000000000000000000000000000000000000000000000602082015250565b60006139ec60238361350b565b91506139f782613990565b604082019050919050565b60006020820190508181036000830152613a1b816139df565b9050919050565b6000613a3d613a38613a3384612901565b612b2d565b613066565b9050919050565b613a4d81613a22565b82525050565b6000604082019050613a6860008301856130d8565b613a756020830184613a44565b9392505050565b600082825260208201905092915050565b6000613a9882612e72565b613aa28185613a7c565b9350613aad83612e8e565b8060005b83811015613ade578151613ac58882612e9e565b9750613ad083612eb6565b925050600181019050613ab1565b5085935050505092915050565b6000604082019050613b0060008301856130c9565b8181036020830152613b128184613a8d565b90509392505050565b6000613b2682612901565b915061ffff8203613b3a57613b39613494565b5b600182019050919050565b600081519050919050565b600081905092915050565b60005b83811015613b79578082015181840152602081019050613b5e565b60008484015250505050565b6000613b9082613b45565b613b9a8185613b50565b9350613baa818560208601613b5b565b80840191505092915050565b6000613bc28284613b85565b915081905092915050565b7f546f75726e616d656e74206e6f7420666f756e64000000000000000000000000600082015250565b6000613c0360148361350b565b9150613c0e82613bcd565b602082019050919050565b60006020820190508181036000830152613c3281613bf6565b9050919050565b7f506c6179657220616c7265616479206578697374730000000000000000000000600082015250565b6000613c6f60158361350b565b9150613c7a82613c39565b602082019050919050565b60006020820190508181036000830152613c9e81613c62565b9050919050565b6000819050919050565b6000613cca613cc5613cc084613ca5565b612b2d565b613066565b9050919050565b613cda81613caf565b82525050565b6000604082019050613cf560008301856130d8565b613d026020830184613cd1565b9392505050565b6000613d1482613b45565b613d1e818561350b565b9350613d2e818560208601613b5b565b613d3781612bb1565b840191505092915050565b60006040820190508181036000830152613d5c8185613d09565b9050613d6b60208301846130d8565b9392505050565b6000613d7d82613066565b9150613d8883613066565b9250828203905081811115613da057613d9f613494565b5b9291505056fea2646970667358221220e92182c1f28203ff5fe136711787834e30d8ebc6111aa95c0651c32b1eb32ecd64736f6c63430008140033",
  "linkReferences": {},
  "deployedLinkReferences": {}
}