{
  "_format": "hh-sol-artifact-1",
  "contractName": "GoatNft",
  "sourceName": "contracts/nfts/GoatNft.sol",
  "abi": [
    {
      "inputs": [],
      "stateMutability": "nonpayable",
      "type": "constructor"
    },
    {
      "inputs": [
        {
          "internalType": "address",
          "name": "sender",
          "type": "address"
        },
        {
          "internalType": "uint256",
          "name": "tokenId",
          "type": "uint256"
        },
        {
          "internalType": "address",
          "name": "owner",
          "type": "address"
        }
      ],
      "name": "ERC721IncorrectOwner",
      "type": "error"
    },
    {
      "inputs": [
        {
          "internalType": "address",
          "name": "operator",
          "type": "address"
        },
        {
          "internalType": "uint256",
          "name": "tokenId",
          "type": "uint256"
        }
      ],
      "name": "ERC721InsufficientApproval",
      "type": "error"
    },
    {
      "inputs": [
        {
          "internalType": "address",
          "name": "approver",
          "type": "address"
        }
      ],
      "name": "ERC721InvalidApprover",
      "type": "error"
    },
    {
      "inputs": [
        {
          "internalType": "address",
          "name": "operator",
          "type": "address"
        }
      ],
      "name": "ERC721InvalidOperator",
      "type": "error"
    },
    {
      "inputs": [
        {
          "internalType": "address",
          "name": "owner",
          "type": "address"
        }
      ],
      "name": "ERC721InvalidOwner",
      "type": "error"
    },
    {
      "inputs": [
        {
          "internalType": "address",
          "name": "receiver",
          "type": "address"
        }
      ],
      "name": "ERC721InvalidReceiver",
      "type": "error"
    },
    {
      "inputs": [
        {
          "internalType": "address",
          "name": "sender",
          "type": "address"
        }
      ],
      "name": "ERC721InvalidSender",
      "type": "error"
    },
    {
      "inputs": [
        {
          "internalType": "uint256",
          "name": "tokenId",
          "type": "uint256"
        }
      ],
      "name": "ERC721NonexistentToken",
      "type": "error"
    },
    {
      "inputs": [
        {
          "internalType": "address",
          "name": "owner",
          "type": "address"
        }
      ],
      "name": "OwnableInvalidOwner",
      "type": "error"
    },
    {
      "inputs": [
        {
          "internalType": "address",
          "name": "account",
          "type": "address"
        }
      ],
      "name": "OwnableUnauthorizedAccount",
      "type": "error"
    },
    {
      "anonymous": false,
      "inputs": [
        {
          "indexed": true,
          "internalType": "address",
          "name": "owner",
          "type": "address"
        },
        {
          "indexed": true,
          "internalType": "address",
          "name": "approved",
          "type": "address"
        },
        {
          "indexed": true,
          "internalType": "uint256",
          "name": "tokenId",
          "type": "uint256"
        }
      ],
      "name": "Approval",
      "type": "event"
    },
    {
      "anonymous": false,
      "inputs": [
        {
          "indexed": true,
          "internalType": "address",
          "name": "owner",
          "type": "address"
        },
        {
          "indexed": true,
          "internalType": "address",
          "name": "operator",
          "type": "address"
        },
        {
          "indexed": false,
          "internalType": "bool",
          "name": "approved",
          "type": "bool"
        }
      ],
      "name": "ApprovalForAll",
      "type": "event"
    },
    {
      "anonymous": false,
      "inputs": [
        {
          "indexed": false,
          "internalType": "uint256",
          "name": "_fromTokenId",
          "type": "uint256"
        },
        {
          "indexed": false,
          "internalType": "uint256",
          "name": "_toTokenId",
          "type": "uint256"
        }
      ],
      "name": "BatchMetadataUpdate",
      "type": "event"
    },
    {
      "anonymous": false,
      "inputs": [
        {
          "indexed": false,
          "internalType": "uint256",
          "name": "_tokenId",
          "type": "uint256"
        }
      ],
      "name": "MetadataUpdate",
      "type": "event"
    },
    {
      "anonymous": false,
      "inputs": [
        {
          "indexed": true,
          "internalType": "address",
          "name": "previousOwner",
          "type": "address"
        },
        {
          "indexed": true,
          "internalType": "address",
          "name": "newOwner",
          "type": "address"
        }
      ],
      "name": "OwnershipTransferred",
      "type": "event"
    },
    {
      "anonymous": false,
      "inputs": [
        {
          "indexed": true,
          "internalType": "address",
          "name": "from",
          "type": "address"
        },
        {
          "indexed": true,
          "internalType": "address",
          "name": "to",
          "type": "address"
        },
        {
          "indexed": true,
          "internalType": "uint256",
          "name": "tokenId",
          "type": "uint256"
        }
      ],
      "name": "Transfer",
      "type": "event"
    },
    {
      "anonymous": false,
      "inputs": [
        {
          "indexed": true,
          "internalType": "address",
          "name": "from",
          "type": "address"
        },
        {
          "indexed": true,
          "internalType": "address",
          "name": "to",
          "type": "address"
        },
        {
          "indexed": false,
          "internalType": "uint256",
          "name": "amount",
          "type": "uint256"
        }
      ],
      "name": "Transfert",
      "type": "event"
    },
    {
      "inputs": [
        {
          "internalType": "address",
          "name": "to",
          "type": "address"
        },
        {
          "internalType": "uint256",
          "name": "tokenId",
          "type": "uint256"
        }
      ],
      "name": "approve",
      "outputs": [],
      "stateMutability": "nonpayable",
      "type": "function"
    },
    {
      "inputs": [
        {
          "internalType": "address",
          "name": "owner",
          "type": "address"
        }
      ],
      "name": "balanceOf",
      "outputs": [
        {
          "internalType": "uint256",
          "name": "",
          "type": "uint256"
        }
      ],
      "stateMutability": "view",
      "type": "function"
    },
    {
      "inputs": [
        {
          "internalType": "uint256",
          "name": "tokenId",
          "type": "uint256"
        }
      ],
      "name": "getApproved",
      "outputs": [
        {
          "internalType": "address",
          "name": "",
          "type": "address"
        }
      ],
      "stateMutability": "view",
      "type": "function"
    },
    {
      "inputs": [],
      "name": "getGoatAddress",
      "outputs": [
        {
          "internalType": "address",
          "name": "",
          "type": "address"
        }
      ],
      "stateMutability": "view",
      "type": "function"
    },
    {
      "inputs": [],
      "name": "goat",
      "outputs": [
        {
          "internalType": "address",
          "name": "",
          "type": "address"
        }
      ],
      "stateMutability": "view",
      "type": "function"
    },
    {
      "inputs": [],
      "name": "goatTokenId",
      "outputs": [
        {
          "internalType": "uint256",
          "name": "",
          "type": "uint256"
        }
      ],
      "stateMutability": "view",
      "type": "function"
    },
    {
      "inputs": [
        {
          "internalType": "address",
          "name": "owner",
          "type": "address"
        },
        {
          "internalType": "address",
          "name": "operator",
          "type": "address"
        }
      ],
      "name": "isApprovedForAll",
      "outputs": [
        {
          "internalType": "bool",
          "name": "",
          "type": "bool"
        }
      ],
      "stateMutability": "view",
      "type": "function"
    },
    {
      "inputs": [],
      "name": "name",
      "outputs": [
        {
          "internalType": "string",
          "name": "",
          "type": "string"
        }
      ],
      "stateMutability": "view",
      "type": "function"
    },
    {
      "inputs": [],
      "name": "owner",
      "outputs": [
        {
          "internalType": "address",
          "name": "",
          "type": "address"
        }
      ],
      "stateMutability": "view",
      "type": "function"
    },
    {
      "inputs": [
        {
          "internalType": "uint256",
          "name": "tokenId",
          "type": "uint256"
        }
      ],
      "name": "ownerOf",
      "outputs": [
        {
          "internalType": "address",
          "name": "",
          "type": "address"
        }
      ],
      "stateMutability": "view",
      "type": "function"
    },
    {
      "inputs": [],
      "name": "renounceOwnership",
      "outputs": [],
      "stateMutability": "nonpayable",
      "type": "function"
    },
    {
      "inputs": [
        {
          "internalType": "address",
          "name": "from",
          "type": "address"
        },
        {
          "internalType": "address",
          "name": "to",
          "type": "address"
        },
        {
          "internalType": "uint256",
          "name": "tokenId",
          "type": "uint256"
        }
      ],
      "name": "safeTransferFrom",
      "outputs": [],
      "stateMutability": "nonpayable",
      "type": "function"
    },
    {
      "inputs": [
        {
          "internalType": "address",
          "name": "from",
          "type": "address"
        },
        {
          "internalType": "address",
          "name": "to",
          "type": "address"
        },
        {
          "internalType": "uint256",
          "name": "tokenId",
          "type": "uint256"
        },
        {
          "internalType": "bytes",
          "name": "data",
          "type": "bytes"
        }
      ],
      "name": "safeTransferFrom",
      "outputs": [],
      "stateMutability": "nonpayable",
      "type": "function"
    },
    {
      "inputs": [
        {
          "internalType": "address",
          "name": "operator",
          "type": "address"
        },
        {
          "internalType": "bool",
          "name": "approved",
          "type": "bool"
        }
      ],
      "name": "setApprovalForAll",
      "outputs": [],
      "stateMutability": "nonpayable",
      "type": "function"
    },
    {
      "inputs": [
        {
          "internalType": "bytes4",
          "name": "interfaceId",
          "type": "bytes4"
        }
      ],
      "name": "supportsInterface",
      "outputs": [
        {
          "internalType": "bool",
          "name": "",
          "type": "bool"
        }
      ],
      "stateMutability": "view",
      "type": "function"
    },
    {
      "inputs": [],
      "name": "symbol",
      "outputs": [
        {
          "internalType": "string",
          "name": "",
          "type": "string"
        }
      ],
      "stateMutability": "view",
      "type": "function"
    },
    {
      "inputs": [
        {
          "internalType": "uint256",
          "name": "tokenId",
          "type": "uint256"
        }
      ],
      "name": "tokenURI",
      "outputs": [
        {
          "internalType": "string",
          "name": "",
          "type": "string"
        }
      ],
      "stateMutability": "view",
      "type": "function"
    },
    {
      "inputs": [
        {
          "internalType": "address",
          "name": "from",
          "type": "address"
        },
        {
          "internalType": "address",
          "name": "to",
          "type": "address"
        },
        {
          "internalType": "uint256",
          "name": "tokenId",
          "type": "uint256"
        }
      ],
      "name": "transferFrom",
      "outputs": [],
      "stateMutability": "nonpayable",
      "type": "function"
    },
    {
      "inputs": [
        {
          "internalType": "address",
          "name": "_from",
          "type": "address"
        },
        {
          "internalType": "address",
          "name": "_to",
          "type": "address"
        }
      ],
      "name": "transferNft",
      "outputs": [],
      "stateMutability": "nonpayable",
      "type": "function"
    },
    {
      "inputs": [
        {
          "internalType": "address",
          "name": "newOwner",
          "type": "address"
        }
      ],
      "name": "transferOwnership",
      "outputs": [],
      "stateMutability": "nonpayable",
      "type": "function"
    }
  ],
  "bytecode": "0x608060405261012b6009553480156200001757600080fd5b50336040518060400160405280600981526020017f476f6174546f6b656e00000000000000000000000000000000000000000000008152506040518060400160405280600481526020017f474f415400000000000000000000000000000000000000000000000000000000815250816000908162000096919062000c86565b508060019081620000a8919062000c86565b505050600073ffffffffffffffffffffffffffffffffffffffff168173ffffffffffffffffffffffffffffffffffffffff1603620001205760006040517f1e4fbdf700000000000000000000000000000000000000000000000000000000815260040162000117919062000db2565b60405180910390fd5b6200013181620001ba60201b60201c565b5033600860006101000a81548173ffffffffffffffffffffffffffffffffffffffff021916908373ffffffffffffffffffffffffffffffffffffffff16021790555062000187336009546200028060201b60201c565b620001b46009546040518060800160405280604f81526020016200301d604f91396200038760201b60201c565b62000e80565b6000600760009054906101000a900473ffffffffffffffffffffffffffffffffffffffff16905081600760006101000a81548173ffffffffffffffffffffffffffffffffffffffff021916908373ffffffffffffffffffffffffffffffffffffffff1602179055508173ffffffffffffffffffffffffffffffffffffffff168173ffffffffffffffffffffffffffffffffffffffff167f8be0079c531659141344cd1fd0a4f28419497f9722a3daafe3b4186f6b6457e060405160405180910390a35050565b600073ffffffffffffffffffffffffffffffffffffffff168273ffffffffffffffffffffffffffffffffffffffff1603620002f55760006040517f64a0ae92000000000000000000000000000000000000000000000000000000008152600401620002ec919062000db2565b60405180910390fd5b60006200030b83836000620003e760201b60201c565b9050600073ffffffffffffffffffffffffffffffffffffffff168173ffffffffffffffffffffffffffffffffffffffff1614620003825760006040517f73c6ac6e00000000000000000000000000000000000000000000000000000000815260040162000379919062000db2565b60405180910390fd5b505050565b80600660008481526020019081526020016000209081620003a9919062000c86565b507ff8e1a15aba9398e019f0b49df1a4fde98ee17ae345cb5f6b5e2c27f5033e8ce782604051620003db919062000de0565b60405180910390a15050565b600080620003fb846200061c60201b60201c565b9050600073ffffffffffffffffffffffffffffffffffffffff168373ffffffffffffffffffffffffffffffffffffffff16146200044657620004458184866200065960201b60201c565b5b600073ffffffffffffffffffffffffffffffffffffffff168173ffffffffffffffffffffffffffffffffffffffff1614620004e05762000491600085600080620006de60201b60201c565b6001600360008373ffffffffffffffffffffffffffffffffffffffff1673ffffffffffffffffffffffffffffffffffffffff168152602001908152602001600020600082825403925050819055505b600073ffffffffffffffffffffffffffffffffffffffff168573ffffffffffffffffffffffffffffffffffffffff161462000564576001600360008773ffffffffffffffffffffffffffffffffffffffff1673ffffffffffffffffffffffffffffffffffffffff168152602001908152602001600020600082825401925050819055505b846002600086815260200190815260200160002060006101000a81548173ffffffffffffffffffffffffffffffffffffffff021916908373ffffffffffffffffffffffffffffffffffffffff160217905550838573ffffffffffffffffffffffffffffffffffffffff168273ffffffffffffffffffffffffffffffffffffffff167fddf252ad1be2c89b69c2b068fc378daa952ba7f163c4a11628f55a4df523b3ef60405160405180910390a4809150509392505050565b60006002600083815260200190815260200160002060009054906101000a900473ffffffffffffffffffffffffffffffffffffffff169050919050565b62000669620008bb60201b60201c565b73ffffffffffffffffffffffffffffffffffffffff168273ffffffffffffffffffffffffffffffffffffffff1614620006d9576040517f08c379a0000000000000000000000000000000000000000000000000000000008152600401620006d09062000e5e565b60405180910390fd5b505050565b8080620007185750600073ffffffffffffffffffffffffffffffffffffffff168273ffffffffffffffffffffffffffffffffffffffff1614155b15620008635760006200073184620008e560201b60201c565b9050600073ffffffffffffffffffffffffffffffffffffffff168373ffffffffffffffffffffffffffffffffffffffff16141580156200079d57508273ffffffffffffffffffffffffffffffffffffffff168173ffffffffffffffffffffffffffffffffffffffff1614155b8015620007b95750620007b781846200097860201b60201c565b155b15620007fe57826040517fa9fbf51f000000000000000000000000000000000000000000000000000000008152600401620007f5919062000db2565b60405180910390fd5b81156200086157838573ffffffffffffffffffffffffffffffffffffffff168273ffffffffffffffffffffffffffffffffffffffff167f8c5be1e5ebec7d5bd14f71427d1e84f3dd0314c0f7b2291e5b200ac8c7c3b92560405160405180910390a45b505b836004600085815260200190815260200160002060006101000a81548173ffffffffffffffffffffffffffffffffffffffff021916908373ffffffffffffffffffffffffffffffffffffffff16021790555050505050565b6000600760009054906101000a900473ffffffffffffffffffffffffffffffffffffffff16905090565b600080620008f9836200061c60201b60201c565b9050600073ffffffffffffffffffffffffffffffffffffffff168173ffffffffffffffffffffffffffffffffffffffff16036200096f57826040517f7e27328900000000000000000000000000000000000000000000000000000000815260040162000966919062000de0565b60405180910390fd5b80915050919050565b6000600560008473ffffffffffffffffffffffffffffffffffffffff1673ffffffffffffffffffffffffffffffffffffffff16815260200190815260200160002060008373ffffffffffffffffffffffffffffffffffffffff1673ffffffffffffffffffffffffffffffffffffffff16815260200190815260200160002060009054906101000a900460ff16905092915050565b600081519050919050565b7f4e487b7100000000000000000000000000000000000000000000000000000000600052604160045260246000fd5b7f4e487b7100000000000000000000000000000000000000000000000000000000600052602260045260246000fd5b6000600282049050600182168062000a8e57607f821691505b60208210810362000aa45762000aa362000a46565b5b50919050565b60008190508160005260206000209050919050565b60006020601f8301049050919050565b600082821b905092915050565b60006008830262000b0e7fffffffffffffffffffffffffffffffffffffffffffffffffffffffffffffffff8262000acf565b62000b1a868362000acf565b95508019841693508086168417925050509392505050565b6000819050919050565b6000819050919050565b600062000b6762000b6162000b5b8462000b32565b62000b3c565b62000b32565b9050919050565b6000819050919050565b62000b838362000b46565b62000b9b62000b928262000b6e565b84845462000adc565b825550505050565b600090565b62000bb262000ba3565b62000bbf81848462000b78565b505050565b5b8181101562000be75762000bdb60008262000ba8565b60018101905062000bc5565b5050565b601f82111562000c365762000c008162000aaa565b62000c0b8462000abf565b8101602085101562000c1b578190505b62000c3362000c2a8562000abf565b83018262000bc4565b50505b505050565b600082821c905092915050565b600062000c5b6000198460080262000c3b565b1980831691505092915050565b600062000c76838362000c48565b9150826002028217905092915050565b62000c918262000a0c565b67ffffffffffffffff81111562000cad5762000cac62000a17565b5b62000cb9825462000a75565b62000cc682828562000beb565b600060209050601f83116001811462000cfe576000841562000ce9578287015190505b62000cf5858262000c68565b86555062000d65565b601f19841662000d0e8662000aaa565b60005b8281101562000d385784890151825560018201915060208501945060208101905062000d11565b8683101562000d58578489015162000d54601f89168262000c48565b8355505b6001600288020188555050505b505050505050565b600073ffffffffffffffffffffffffffffffffffffffff82169050919050565b600062000d9a8262000d6d565b9050919050565b62000dac8162000d8d565b82525050565b600060208201905062000dc9600083018462000da1565b92915050565b62000dda8162000b32565b82525050565b600060208201905062000df7600083018462000dcf565b92915050565b600082825260208201905092915050565b7f4f6e6c792061646d696e2063616e207472616e7366657220746f6b656e730000600082015250565b600062000e46601e8362000dfd565b915062000e538262000e0e565b602082019050919050565b6000602082019050818103600083015262000e798162000e37565b9050919050565b61218d8062000e906000396000f3fe608060405234801561001057600080fd5b506004361061012c5760003560e01c8063715018a6116100ad578063c87b56dd11610071578063c87b56dd1461031b578063e4d9d1221461034b578063e985e9c514610369578063f2fde38b14610399578063f8cacb4c146103b55761012c565b8063715018a61461029d5780638da5cb5b146102a757806395d89b41146102c5578063a22cb465146102e3578063b88d4fde146102ff5761012c565b806323b872dd116100f457806323b872dd146101e757806331d382a21461020357806342842e0e146102215780636352211e1461023d57806370a082311461026d5761012c565b806301ffc9a714610131578063065db7a51461016157806306fdde031461017d578063081812fc1461019b578063095ea7b3146101cb575b600080fd5b61014b60048036038101906101469190611994565b6103d3565b60405161015891906119dc565b60405180910390f35b61017b60048036038101906101769190611a55565b6103e5565b005b6101856104a6565b6040516101929190611b25565b60405180910390f35b6101b560048036038101906101b09190611b7d565b610538565b6040516101c29190611bb9565b60405180910390f35b6101e560048036038101906101e09190611bd4565b610554565b005b61020160048036038101906101fc9190611c14565b61056a565b005b61020b61066c565b6040516102189190611bb9565b60405180910390f35b61023b60048036038101906102369190611c14565b610692565b005b61025760048036038101906102529190611b7d565b6106b2565b6040516102649190611bb9565b60405180910390f35b61028760048036038101906102829190611c67565b6106c4565b6040516102949190611ca3565b60405180910390f35b6102a561077e565b005b6102af610792565b6040516102bc9190611bb9565b60405180910390f35b6102cd6107bc565b6040516102da9190611b25565b60405180910390f35b6102fd60048036038101906102f89190611cea565b61084e565b005b61031960048036038101906103149190611e5f565b610864565b005b61033560048036038101906103309190611b7d565b610889565b6040516103429190611b25565b60405180910390f35b61035361089b565b6040516103609190611ca3565b60405180910390f35b610383600480360381019061037e9190611a55565b6108a1565b60405161039091906119dc565b60405180910390f35b6103b360048036038101906103ae9190611c67565b610935565b005b6103bd6109bb565b6040516103ca9190611bb9565b60405180910390f35b60006103de826109e5565b9050919050565b6103ed610a46565b6103fa8282600954610692565b8073ffffffffffffffffffffffffffffffffffffffff168273ffffffffffffffffffffffffffffffffffffffff167faf9ff3ada675379ca19fdd908e550417162f2a7370166e8257b25888e55926e76009546040516104599190611ca3565b60405180910390a380600860006101000a81548173ffffffffffffffffffffffffffffffffffffffff021916908373ffffffffffffffffffffffffffffffffffffffff1602179055505050565b6060600080546104b590611f11565b80601f01602080910402602001604051908101604052809291908181526020018280546104e190611f11565b801561052e5780601f106105035761010080835404028352916020019161052e565b820191906000526020600020905b81548152906001019060200180831161051157829003601f168201915b5050505050905090565b600061054382610acd565b5061054d82610b55565b9050919050565b6105668282610561610b92565b610b9a565b5050565b600073ffffffffffffffffffffffffffffffffffffffff168273ffffffffffffffffffffffffffffffffffffffff16036105dc5760006040517f64a0ae920000000000000000000000000000000000000000000000000000000081526004016105d39190611bb9565b60405180910390fd5b60006105f083836105eb610b92565b610bac565b90508373ffffffffffffffffffffffffffffffffffffffff168173ffffffffffffffffffffffffffffffffffffffff1614610666578382826040517f64283d7b00000000000000000000000000000000000000000000000000000000815260040161065d93929190611f42565b60405180910390fd5b50505050565b600860009054906101000a900473ffffffffffffffffffffffffffffffffffffffff1681565b6106ad83838360405180602001604052806000815250610864565b505050565b60006106bd82610acd565b9050919050565b60008073ffffffffffffffffffffffffffffffffffffffff168273ffffffffffffffffffffffffffffffffffffffff16036107375760006040517f89c62b6400000000000000000000000000000000000000000000000000000000815260040161072e9190611bb9565b60405180910390fd5b600360008373ffffffffffffffffffffffffffffffffffffffff1673ffffffffffffffffffffffffffffffffffffffff168152602001908152602001600020549050919050565b610786610a46565b6107906000610dc6565b565b6000600760009054906101000a900473ffffffffffffffffffffffffffffffffffffffff16905090565b6060600180546107cb90611f11565b80601f01602080910402602001604051908101604052809291908181526020018280546107f790611f11565b80156108445780601f1061081957610100808354040283529160200191610844565b820191906000526020600020905b81548152906001019060200180831161082757829003601f168201915b5050505050905090565b610860610859610b92565b8383610e8c565b5050565b61086f84848461056a565b61088361087a610b92565b85858585610ffb565b50505050565b6060610894826111ac565b9050919050565b60095481565b6000600560008473ffffffffffffffffffffffffffffffffffffffff1673ffffffffffffffffffffffffffffffffffffffff16815260200190815260200160002060008373ffffffffffffffffffffffffffffffffffffffff1673ffffffffffffffffffffffffffffffffffffffff16815260200190815260200160002060009054906101000a900460ff16905092915050565b61093d610a46565b600073ffffffffffffffffffffffffffffffffffffffff168173ffffffffffffffffffffffffffffffffffffffff16036109af5760006040517f1e4fbdf70000000000000000000000000000000000000000000000000000000081526004016109a69190611bb9565b60405180910390fd5b6109b881610dc6565b50565b6000600860009054906101000a900473ffffffffffffffffffffffffffffffffffffffff16905090565b6000634906490660e01b7bffffffffffffffffffffffffffffffffffffffffffffffffffffffff1916827bffffffffffffffffffffffffffffffffffffffffffffffffffffffff19161480610a3f5750610a3e826112bf565b5b9050919050565b610a4e610b92565b73ffffffffffffffffffffffffffffffffffffffff16610a6c610792565b73ffffffffffffffffffffffffffffffffffffffff1614610acb57610a8f610b92565b6040517f118cdaa7000000000000000000000000000000000000000000000000000000008152600401610ac29190611bb9565b60405180910390fd5b565b600080610ad9836113a1565b9050600073ffffffffffffffffffffffffffffffffffffffff168173ffffffffffffffffffffffffffffffffffffffff1603610b4c57826040517f7e273289000000000000000000000000000000000000000000000000000000008152600401610b439190611ca3565b60405180910390fd5b80915050919050565b60006004600083815260200190815260200160002060009054906101000a900473ffffffffffffffffffffffffffffffffffffffff169050919050565b600033905090565b610ba783838360016113de565b505050565b600080610bb8846113a1565b9050600073ffffffffffffffffffffffffffffffffffffffff168373ffffffffffffffffffffffffffffffffffffffff1614610bfa57610bf98184866115a3565b5b600073ffffffffffffffffffffffffffffffffffffffff168173ffffffffffffffffffffffffffffffffffffffff1614610c8b57610c3c6000856000806113de565b6001600360008373ffffffffffffffffffffffffffffffffffffffff1673ffffffffffffffffffffffffffffffffffffffff168152602001908152602001600020600082825403925050819055505b600073ffffffffffffffffffffffffffffffffffffffff168573ffffffffffffffffffffffffffffffffffffffff1614610d0e576001600360008773ffffffffffffffffffffffffffffffffffffffff1673ffffffffffffffffffffffffffffffffffffffff168152602001908152602001600020600082825401925050819055505b846002600086815260200190815260200160002060006101000a81548173ffffffffffffffffffffffffffffffffffffffff021916908373ffffffffffffffffffffffffffffffffffffffff160217905550838573ffffffffffffffffffffffffffffffffffffffff168273ffffffffffffffffffffffffffffffffffffffff167fddf252ad1be2c89b69c2b068fc378daa952ba7f163c4a11628f55a4df523b3ef60405160405180910390a4809150509392505050565b6000600760009054906101000a900473ffffffffffffffffffffffffffffffffffffffff16905081600760006101000a81548173ffffffffffffffffffffffffffffffffffffffff021916908373ffffffffffffffffffffffffffffffffffffffff1602179055508173ffffffffffffffffffffffffffffffffffffffff168173ffffffffffffffffffffffffffffffffffffffff167f8be0079c531659141344cd1fd0a4f28419497f9722a3daafe3b4186f6b6457e060405160405180910390a35050565b600073ffffffffffffffffffffffffffffffffffffffff168273ffffffffffffffffffffffffffffffffffffffff1603610efd57816040517f5b08ba18000000000000000000000000000000000000000000000000000000008152600401610ef49190611bb9565b60405180910390fd5b80600560008573ffffffffffffffffffffffffffffffffffffffff1673ffffffffffffffffffffffffffffffffffffffff16815260200190815260200160002060008473ffffffffffffffffffffffffffffffffffffffff1673ffffffffffffffffffffffffffffffffffffffff16815260200190815260200160002060006101000a81548160ff0219169083151502179055508173ffffffffffffffffffffffffffffffffffffffff168373ffffffffffffffffffffffffffffffffffffffff167f17307eab39ab6107e8899845ad3d59bd9653f200f220920489ca2b5937696c3183604051610fee91906119dc565b60405180910390a3505050565b60008373ffffffffffffffffffffffffffffffffffffffff163b11156111a5578273ffffffffffffffffffffffffffffffffffffffff1663150b7a02868685856040518563ffffffff1660e01b815260040161105a9493929190611fce565b6020604051808303816000875af192505050801561109657506040513d601f19601f82011682018060405250810190611093919061202f565b60015b61111a573d80600081146110c6576040519150601f19603f3d011682016040523d82523d6000602084013e6110cb565b606091505b50600081510361111257836040517f64a0ae920000000000000000000000000000000000000000000000000000000081526004016111099190611bb9565b60405180910390fd5b805181602001fd5b63150b7a0260e01b7bffffffffffffffffffffffffffffffffffffffffffffffffffffffff1916817bffffffffffffffffffffffffffffffffffffffffffffffffffffffff1916146111a357836040517f64a0ae9200000000000000000000000000000000000000000000000000000000815260040161119a9190611bb9565b60405180910390fd5b505b5050505050565b60606111b782610acd565b5060006006600084815260200190815260200160002080546111d890611f11565b80601f016020809104026020016040519081016040528092919081815260200182805461120490611f11565b80156112515780601f1061122657610100808354040283529160200191611251565b820191906000526020600020905b81548152906001019060200180831161123457829003601f168201915b50505050509050600061126261161d565b905060008151036112775781925050506112ba565b6000825111156112ac578082604051602001611294929190612098565b604051602081830303815290604052925050506112ba565b6112b584611634565b925050505b919050565b60007f80ac58cd000000000000000000000000000000000000000000000000000000007bffffffffffffffffffffffffffffffffffffffffffffffffffffffff1916827bffffffffffffffffffffffffffffffffffffffffffffffffffffffff1916148061138a57507f5b5e139f000000000000000000000000000000000000000000000000000000007bffffffffffffffffffffffffffffffffffffffffffffffffffffffff1916827bffffffffffffffffffffffffffffffffffffffffffffffffffffffff1916145b8061139a57506113998261169d565b5b9050919050565b60006002600083815260200190815260200160002060009054906101000a900473ffffffffffffffffffffffffffffffffffffffff169050919050565b80806114175750600073ffffffffffffffffffffffffffffffffffffffff168273ffffffffffffffffffffffffffffffffffffffff1614155b1561154b57600061142784610acd565b9050600073ffffffffffffffffffffffffffffffffffffffff168373ffffffffffffffffffffffffffffffffffffffff161415801561149257508273ffffffffffffffffffffffffffffffffffffffff168173ffffffffffffffffffffffffffffffffffffffff1614155b80156114a557506114a381846108a1565b155b156114e757826040517fa9fbf51f0000000000000000000000000000000000000000000000000000000081526004016114de9190611bb9565b60405180910390fd5b811561154957838573ffffffffffffffffffffffffffffffffffffffff168273ffffffffffffffffffffffffffffffffffffffff167f8c5be1e5ebec7d5bd14f71427d1e84f3dd0314c0f7b2291e5b200ac8c7c3b92560405160405180910390a45b505b836004600085815260200190815260200160002060006101000a81548173ffffffffffffffffffffffffffffffffffffffff021916908373ffffffffffffffffffffffffffffffffffffffff16021790555050505050565b6115ab610792565b73ffffffffffffffffffffffffffffffffffffffff168273ffffffffffffffffffffffffffffffffffffffff1614611618576040517f08c379a000000000000000000000000000000000000000000000000000000000815260040161160f90612108565b60405180910390fd5b505050565b606060405180602001604052806000815250905090565b606061163f82610acd565b50600061164a61161d565b9050600081511161166a5760405180602001604052806000815250611695565b8061167484611707565b604051602001611685929190612098565b6040516020818303038152906040525b915050919050565b60007f01ffc9a7000000000000000000000000000000000000000000000000000000007bffffffffffffffffffffffffffffffffffffffffffffffffffffffff1916827bffffffffffffffffffffffffffffffffffffffffffffffffffffffff1916149050919050565b606060006001611716846117d5565b01905060008167ffffffffffffffff81111561173557611734611d34565b5b6040519080825280601f01601f1916602001820160405280156117675781602001600182028036833780820191505090505b509050600082602001820190505b6001156117ca578080600190039150507f3031323334353637383961626364656600000000000000000000000000000000600a86061a8153600a85816117be576117bd612128565b5b04945060008503611775575b819350505050919050565b600080600090507a184f03e93ff9f4daa797ed6e38ed64bf6a1f0100000000000000008310611833577a184f03e93ff9f4daa797ed6e38ed64bf6a1f010000000000000000838161182957611828612128565b5b0492506040810190505b6d04ee2d6d415b85acef81000000008310611870576d04ee2d6d415b85acef8100000000838161186657611865612128565b5b0492506020810190505b662386f26fc10000831061189f57662386f26fc10000838161189557611894612128565b5b0492506010810190505b6305f5e10083106118c8576305f5e10083816118be576118bd612128565b5b0492506008810190505b61271083106118ed5761271083816118e3576118e2612128565b5b0492506004810190505b60648310611910576064838161190657611905612128565b5b0492506002810190505b600a831061191f576001810190505b80915050919050565b6000604051905090565b600080fd5b600080fd5b60007fffffffff0000000000000000000000000000000000000000000000000000000082169050919050565b6119718161193c565b811461197c57600080fd5b50565b60008135905061198e81611968565b92915050565b6000602082840312156119aa576119a9611932565b5b60006119b88482850161197f565b91505092915050565b60008115159050919050565b6119d6816119c1565b82525050565b60006020820190506119f160008301846119cd565b92915050565b600073ffffffffffffffffffffffffffffffffffffffff82169050919050565b6000611a22826119f7565b9050919050565b611a3281611a17565b8114611a3d57600080fd5b50565b600081359050611a4f81611a29565b92915050565b60008060408385031215611a6c57611a6b611932565b5b6000611a7a85828601611a40565b9250506020611a8b85828601611a40565b9150509250929050565b600081519050919050565b600082825260208201905092915050565b60005b83811015611acf578082015181840152602081019050611ab4565b60008484015250505050565b6000601f19601f8301169050919050565b6000611af782611a95565b611b018185611aa0565b9350611b11818560208601611ab1565b611b1a81611adb565b840191505092915050565b60006020820190508181036000830152611b3f8184611aec565b905092915050565b6000819050919050565b611b5a81611b47565b8114611b6557600080fd5b50565b600081359050611b7781611b51565b92915050565b600060208284031215611b9357611b92611932565b5b6000611ba184828501611b68565b91505092915050565b611bb381611a17565b82525050565b6000602082019050611bce6000830184611baa565b92915050565b60008060408385031215611beb57611bea611932565b5b6000611bf985828601611a40565b9250506020611c0a85828601611b68565b9150509250929050565b600080600060608486031215611c2d57611c2c611932565b5b6000611c3b86828701611a40565b9350506020611c4c86828701611a40565b9250506040611c5d86828701611b68565b9150509250925092565b600060208284031215611c7d57611c7c611932565b5b6000611c8b84828501611a40565b91505092915050565b611c9d81611b47565b82525050565b6000602082019050611cb86000830184611c94565b92915050565b611cc7816119c1565b8114611cd257600080fd5b50565b600081359050611ce481611cbe565b92915050565b60008060408385031215611d0157611d00611932565b5b6000611d0f85828601611a40565b9250506020611d2085828601611cd5565b9150509250929050565b600080fd5b600080fd5b7f4e487b7100000000000000000000000000000000000000000000000000000000600052604160045260246000fd5b611d6c82611adb565b810181811067ffffffffffffffff82111715611d8b57611d8a611d34565b5b80604052505050565b6000611d9e611928565b9050611daa8282611d63565b919050565b600067ffffffffffffffff821115611dca57611dc9611d34565b5b611dd382611adb565b9050602081019050919050565b82818337600083830152505050565b6000611e02611dfd84611daf565b611d94565b905082815260208101848484011115611e1e57611e1d611d2f565b5b611e29848285611de0565b509392505050565b600082601f830112611e4657611e45611d2a565b5b8135611e56848260208601611def565b91505092915050565b60008060008060808587031215611e7957611e78611932565b5b6000611e8787828801611a40565b9450506020611e9887828801611a40565b9350506040611ea987828801611b68565b925050606085013567ffffffffffffffff811115611eca57611ec9611937565b5b611ed687828801611e31565b91505092959194509250565b7f4e487b7100000000000000000000000000000000000000000000000000000000600052602260045260246000fd5b60006002820490506001821680611f2957607f821691505b602082108103611f3c57611f3b611ee2565b5b50919050565b6000606082019050611f576000830186611baa565b611f646020830185611c94565b611f716040830184611baa565b949350505050565b600081519050919050565b600082825260208201905092915050565b6000611fa082611f79565b611faa8185611f84565b9350611fba818560208601611ab1565b611fc381611adb565b840191505092915050565b6000608082019050611fe36000830187611baa565b611ff06020830186611baa565b611ffd6040830185611c94565b818103606083015261200f8184611f95565b905095945050505050565b60008151905061202981611968565b92915050565b60006020828403121561204557612044611932565b5b60006120538482850161201a565b91505092915050565b600081905092915050565b600061207282611a95565b61207c818561205c565b935061208c818560208601611ab1565b80840191505092915050565b60006120a48285612067565b91506120b08284612067565b91508190509392505050565b7f4f6e6c792061646d696e2063616e207472616e7366657220746f6b656e730000600082015250565b60006120f2601e83611aa0565b91506120fd826120bc565b602082019050919050565b60006020820190508181036000830152612121816120e5565b9050919050565b7f4e487b7100000000000000000000000000000000000000000000000000000000600052601260045260246000fdfea2646970667358221220f50ea23b2708a2e44c4f5063dbdd852352f220509a7208f022b7067fe29d935864736f6c63430008140033697066733a2f2f6261666b72656967796374716535666234353671636679646736706679367a64683632366569643466357a6e776636796a36726e6a6c7a627135612f476f61744e46542e6a736f6e",
  "linkReferences": {},
  "deployedLinkReferences": {}
}